:0200000460009A
:100000004643464200000156000000000103030081
:1000100000000000000000000000000000000000E0
:1000200000000000000000000000000000000000D0
:1000300000000000000000000000000000000000C0
:1000400000000000010408000000000000000000A3
:100050000000800000000000000000000000000020
:100060000000000000000000000000000000000090
:100070000000000000000000000000000000000080
:10008000EB04180A063204260000000000000000FD
:10009000050404240000000000000000000000002F
:1000A0000000000000000000000000000000000050
:1000B0000604000000000000000000000000000036
:1000C0000000000000000000000000000000000030
:1000D00020041808000000000000000000000000DC
:1000E0000000000000000000000000000000000010
:1000F0000000000000000000000000000000000000
:10010000D8041808000000000000000000000000F3
:100110000204180804200000000000000000000095
:1001200000000000000000000000000000000000CF
:10013000600400000000000000000000000000005B
:1001400000000000000000000000000000000000AF
:10015000000000000000000000000000000000009F
:10016000000000000000000000000000000000008F
:10017000000000000000000000000000000000007F
:10018000000000000000000000000000000000006F
:10019000000000000000000000000000000000005F
:1001A000000000000000000000000000000000004F
:1001B000000000000000000000000000000000003F
:1001C000000100000010000001000000000000001D
:1001D000000001000000000000000000000000001E
:1001E000000000000000000000000000000000000F
:1001F00000000000000000000000000000000000FF
:10020000FFFFFFFFFFFFFFFFFFFFFFFFFFFFFFFFFE
:10021000FFFFFFFFFFFFFFFFFFFFFFFFFFFFFFFFEE
:10100000D10020434D1600600000000000000000E9
:10101000201000600010006000F00560000000007B
:101020000000006000FC050000000000FFFFFFFF63
:10103000FFFFFFFFFFFFFFFFFFFFFFFFFFFFFFFFC0
:10104000FFFFFFFFFFFFFFFFFFFFFFFFFFFFFFFFB0
:10105000FFFFFFFFFFFFFFFFFFFFFFFFFFFFFFFFA0
:10106000FFFFFFFFFFFFFFFFFFFFFFFFFFFFFFFF90
:10140000814205D051F8043B40F8043B8242F9D8B0
:10141000704700BF044A05494FF0000342F8043BFF
:101420009142FBD8704700BFC0EE0020C03C0120B5
:101430002DE98848BFF34F8F00BF00BF00BF00BF3A
:1014400000F018F9684B0822C3F8542100BF00BF10
:1014500000BF00BF00BF00BF00BF00BF00BF00BF94
:1014600000BF00BF00BF00BF00BF00BF5F4A6049B0
:101470006048FFF7C5FF604A60496148FFF7C0FF59
:10148000604CFFF7C7FF4FF470004FF0E0210023DE
:101490005D4AC1F8880D44F823200133B02BFAD1FE
:1014A0005A4B80215A4A03F8011B9342FBD14FF05B
:1014B000E0254D4E4FF08039DFF884B1DFF884A18C
:1014C0004FF0FF31C5F8084D0027C6F80491C6F863
:1014D00000B1C6F8F490C6F8F0A0D5F8243DDFF8C6
:1014E000688143F4E0234B4AC5F8243DD8F81C300A
:1014F00023F07F0343F04003C8F81C30D8F82430B1
:1015000023F07F0343F04003C8F824309166D1668E
:101510001167516700F0B6F83F4B4049A363404B59
:10152000E36363236B610323AF612B613D4BC5F81C
:10153000203DD5F8FC3D43F08073C5F8FC3D3A4BA7
:101540001A6842F001021A605B680B6000F0E4FA6E
:10155000C6F804913548C6F800B1C6F8F490C6F84C
:10156000F0A000F071FCD8F86C10314B314A41F416
:101570004051C8F86C101F60C3F80871C3F81871A7
:10158000C3F82871C3F83871936BDB0708D442F6AF
:101590001563294951651365936B43F00103936308
:1015A000244A264C936843F00113936000F0F2F84C
:1015B00000F016FC00F058FC00F0DCFA00F05CF8DB
:1015C0002368132BFCD900F06DFB2368B3F5967FDD
:1015D000FBD300F055F800F051F800F04DFC00F09E
:1015E0003BFC30BFFDE700BF00800D4090DF0400F2
:1015F000C01F006000000000C0EE002054FF046027
:101600000000002000EC00203D3E000000E400E06F
:10161000A0E400E000C00A4019530000503C012043
:101620001D53000000002020001000E00046C323EE
:101630000040084000400D400000C056543C0120CE
:101640001B1018200C0D111300C00F40054B4FF458
:101650002A01054A05485A641864054A9963954663
:10166000FFF7E6FE00C00A40FFFFAFAA0700200018
:1016700000000320704700BF704700BF704700BFE5
:1016800000BF704710B44FF0E02300211024314810
:10169000C3F8941DC3F89C4D1124C3F8A00D2E4827
:1016A000C3F89C4D1224C3F8A00D2C48C3F89C4DE0
:1016B0002B4AC3F8A00D2B4C42F015022A48C3F860
:1016C0009C4DC3F8A00D294C2948C3F89C4DC3F884
:1016D000A00D284CC3F89C2D2748284AC3F8A04DDC
:1016E000C3F89C0DC3F8A02D02F5A022244C0C32A7
:1016F0002448C3F89C4DC3F8A02D234AC3F89C0D81
:10170000224CC3F8A02D02F14062C3F89C4D204842
:10171000C3F8A02D0C32C3F89C0DC3F8A02D00BF58
:1017200000BF00BF00BF00BF0122C3F8942DBFF36C
:101730004F8FBFF36F8FC3F8501FBFF34F8FBFF3AF
:101740006F8FD3F8142D5DF8044B42F44032C3F888
:10175000142D70473F0000102500080709001000F5
:10176000C03C0120130020002100020714000020CB
:1017700025000813090000101600202027000B1375
:1017800017000040180000602F000B0719000070C0
:101790001A000080F0B5B84B1822B84E0120B84F9F
:1017A00083B0C3F85C62B749C3F86072B64DC3F842
:1017B0006462A6F53046B54CC3F86862C3F86C5253
:1017C000C3F87052C3F87452C3F8785248F20C75DB
:1017D000DA661A675A679A67DA67C3F88020C3F82F
:1017E0008420C3F88820C1F82C03A94AC1F830032B
:1017F000C1F83403C1F83803C1F83C03C1F8500301
:10180000A169A44B0A40A448A4491343A44AA36174
:10181000D4F8843043F00C03C4F884304FF0FF3424
:10182000036843F00203036003682B404FF4005544
:101830001A439C4B026044608A689B4C13409B4A4D
:1018400043F000538360C36823F07803C360036AE6
:10185000134023430362036A1340954A2343954C84
:1018600043628262C2620022D1F8B83023F03F03A3
:1018700043F00103C0F8B830D1F8BC308E4923F0F2
:101880003F0343F00103C0F8BC3040F2056302613E
:1018900005660467C0F88030456644670224C0F8D6
:1018A0008430036823F0020303608161834B844921
:1018B000C46143F8042B8B42FBD1774A136843F091
:1018C00001031360136813F00103FBD17A4802216E
:1018D00040F2F564906140F29940D16140F2664176
:1018E000C2F8004242F20144C2F810127549C2F82F
:1018F0002002C2F8301240F235417348C2F8344237
:10190000C2F84012714CC2F8500242F201207049F4
:10191000C2F854120121C2F86042C2F864025E4863
:10192000C2F8A030C2F8A430C2F8B0104369DA0798
:10193000FCD5012300244FF4803257494361C0F89D
:10194000A040C0F8A420C0F8B0304B69DB07FCD53C
:10195000012300244FF400304F4A4B61C1F8A040EE
:10196000C1F8A400C1F8B0305369DF07FCD50123EA
:101970000024584848495361C2F8A040C2F8A40066
:10198000C2F8B0304B69DE07FCD5D1F8003145F61E
:101990000D5221209BB24861934265D100244FF43F
:1019A000802201233C48C1F8A040C1F8A420C1F81E
:1019B000B0304369DD07FCD501234FF4000400215A
:1019C000354A4361C0F8A040C0F8A410C0F8B03058
:1019D0005369DC07FCD501234FF400044FF4803039
:1019E0002D495361C2F8A040C2F8A400C2F8B0303B
:1019F0004B69D807FCD501234FF400044FF40030A5
:101A0000254A4B61C1F8A040C1F8A400C1F8B0302C
:101A10005369D907FCD501234FF400042D481E4912
:101A20005361C2F8A040C2F8A400C2F8B0304B69BC
:101A3000DA07FCD5D1F8003145F60D5221209BB2D2
:101A40004861934250D008254FF4000422490020F9
:101A5000224B234A009015705A1A01232148224430
:101A600000F0EEF903B0F0BD1E4B0022C3E90022E6
:101A7000C3E9022203B0F0BD00801F40F9B00100AD
:101A8000F910010000841F40F970010000C00F40F0
:101A9000FFFCFF1F000300A000402A4000802A40F6
:101AA0001200FFFFFF37F7004000008000FFF07CCE
:101AB000FF000F8363000200F05AF05A00422A40F0
:101AC00000432A409F041830EB06180A3806180A0B
:101AD00006320126040003000000007000000070C0
:101AE0007E3C0120883801204FF400044FF480220E
:101AF00001230848C1F8A040C1F8A420C1F8B030C3
:101B00004369DB07FCD5012310254FF08074436146
:101B10009CE700BF00402A40F0B4154A40274FF42C
:101B200080314FF480564FF400554FF4404443F257
:101B30004200136913F0020F0ED113F4005F0FD0AF
:101B400013F4805F0ED0002BF3DA13F4803F0BD137
:101B50005B060BD5F0BC7047946151619061E8E77A
:101B60005561E6E75661E4E79161E2E75761E0E736
:101B700000800D403F4A03203F49F3EE095AD2F856
:101B800080304FF0000C9FED3D6A23F001039FED84
:101B90003C5A30B4C2F88030C2F89000D1F8E0105E
:101BA000384DCBB2384C39482B6007EE903A0B0DCC
:101BB000C1F30B21F8EEE77A06EE903A07EE101A21
:101BC000334BB8EEC77A2160F8EEE66A314937EE5A
:101BD000C66A37EEC55A76EEC76A77EEE57A26EE24
:101BE000266AC3ED006A25EE265AD2F8803067EEE9
:101BF000A64AC0ED007AC6EE275A274885EE276A26
:101C0000C4EEA76A75EE875AFCEEE55A36EE076A0F
:101C100015EE904ABCEEC66A43EA045376EE877A24
:101C2000C2F8803016EE103AD2F89041FCEEE77A16
:101C300001EA0341214317EE903AC2F89011C3F331
:101C40000B03D2F890110B431449C2F89031D2F82B
:101C5000803043F00203C2F88030114B80F840C05E
:101C6000C1F840314FF0E023012230BCC3F8082115
:101C7000704700BF00810D4000441F400000AA4291
:101C80000000B442283B0120243B01202C3B0120D2
:101C9000303B01200000FF0F00E400E000EC0020DA
:101CA0003D400000314B40F6617210B5C3F8202171
:101CB00040F2044400F0D4F82D4A2E49D2F8803086
:101CC0002D4843F00303C2F880302C4BC1F860412B
:101CD00002681A4203D1D1F8A8319A071BD0254ACD
:101CE0004FF00041244B5963D2F8403143F00203D6
:101CF000C2F84031D2F840319B07FBD44FF400309A
:101D00004FF0E0211C4B4FF00042C1F88C0219202B
:101D10009A6300F09DF8184A4FF08040154C00215E
:101D200090630A20164B11604FF42072C4F8A8018A
:101D3000184600F09DF84FF4800203464FF48100EE
:101D400040F243111860C4F858311A640D4B0E4A22
:101D5000C4F84811C3F804224FF0E0224FF40031D8
:101D60000123C2F80C11C4F8403110BD00800D40B1
:101D700000C00F4000002E4000900D40001C1E00CF
:101D80000000002000EC00202542000008B50E4BAA
:101D90001B6E9B0700D4FBBE72B60C4B00200C4A96
:101DA000C3F8400103F160430A49A3F55F231164BE
:101DB0009D46BFF34F8F4FF400130748074ADB6976
:101DC00002609B68984700BF00441F4000002E40FF
:101DD00000C00A400300200000802020000012EB19
:101DE000104BA020104AD96E41F4403110B4D9668E
:101DF00040F23764D96E41F44071D96654649064FE
:101E0000936C1B06FCD4094A40F23761A02351644D
:101E10009364936C13F08003FBD1054A13705DF853
:101E2000044B704700C00F4000400C4000800C4045
:101E30007D3C0120F8B500BFF8BC08BC9E46704749
:101E40005FF800F00D5800005FF800F03D5300000F
:101E50005FF800F00D3A00005FF800F0813C0000F0
:101E60005FF800F0954900005FF800F0A956000007
:101E70005FF800F041A803005FF800F01DD80300F0
:101E800005010000E1250000152A00006D0F01008A
:101E9000FD780100491A020069BF0200D9C802009A
:081EA00025F20200E5F4020046
:101EA80072740492740448940478C40C72B40400E4
:101EB80016035500530042002000530065007200CD
:101EC800690061006C00000018035400650065009B
:101ED8006E00730079006400750069006E006F0081
:101EE8000403090409026200030100C032080B0060
:101EF8000202020100090400000102020100052497
:101F0800001001052401010104240206052406002D
:101F1800010705820310001009040100020A0000ED
:101F2800000705030240000007058402400000097D
:101F380004020002FF6AFF00070581024000010752
:101F4800050102400001000009026200030100C00F
:101F580032080B000202020100090400000102021B
:101F680001000524001001052401010104240206D2
:101F78000524060001070582031000050904010075
:101F8800020A000000070503020002000705840298
:101F98000002000904020002FF6AC7000705810267
:101FA8000002010705010200020100000A06000202
:081FB800EF02014001000000EE
:101FC0000000000000000000000000000000000011
:101FD0000000000000000000000000000000000001
:101FE000F8B54FF084439D695A6915400DD0254FCF
:101FF00001269D6195FAA5F4B4FA84F457F82430CB
:1020000006FA04F49847A543F4D11F4B9D695A6919
:1020100015400DD01D4F01269D6195FAA5F4B4FA27
:1020200084F457F8243006FA04F49847A543F4D111
:10203000174B9D695A6915400DD0164F01269D61B9
:1020400095FAA5F4B4FA84F457F8243006FA04F4A7
:102050009847A543F4D1104B9D695A6915400DD09E
:102060000E4F01269D6195FAA5F4B4FA84F457F851
:10207000243006FA04F49847A543F4D1BFF34F8FF8
:10208000F8BD00BF34E6002000400042B4E6002066
:102090000080004234E7002000C00042B4E7002086
:1020A0000548064B1B1AD90F01EBA301491002D0BA
:1020B000034B03B118477047C0EE0020C0EE00206C
:1020C0000000000008B5054B1BB105490548AFF3FA
:1020D0000080BDE80840FFF7E3BF00BF000000003C
:1020E000CC3A012000FC056000207047034B1868C3
:1020F00010B103681B681847704700BF581A0120C9
:102100002DE9F04100F5005090B0574C9646574BE2
:102110000094C0F810191B6A5548C3F301230468E2
:10212000403304F080746B4413F8406C514B03FB54
:1021300006F60368B6FBF1F2B6FBF2F543F0A043F6
:102140004D1B03600368DF01FCD5052A4FF0000C2E
:102150002AD96046831C0130B2FBF3F7192F07FB25
:1021600003F3F7D84FF00108B6FBF3F3CB1A002BBB
:10217000B8BF5B42AB420BDBA7F10C0318BF4FF0BB
:102180000008062B0AD8B8F1000F07D08446E1E713
:102190001D46A7F10C038446062BF4D9052FD9D888
:1021A0000CF10103B2FBF3F2B5F5967FA2F1050243
:1021B0004CDC142A4AD802EB42022F4F6E46DFF85D
:1021C000B08002F14003BEF1020F0DEB03050FCF0B
:1021D0000FC60FCF0FC60FCF0FC697E80F0007C669
:1021E00026F8023B4FEA1343337015F83F3C15F8CD
:1021F0003E2C4FEAC34315F8401C4FEA024203F459
:10220000601301F0070102F4E02243EA020343EA0B
:10221000010343F4800343EA0C6343F48043C8F8AA
:102220000430D8F8043014BF23F0080343F0080347
:10223000C8F804303CB90E4A136823F08053136089
:102240001368DB01FCD410B0BDE8F081002CFAD19A
:10225000074A136823F0805313601368D901FCD434
:1022600010B0BDE8F08100BF3C18500000C00F4026
:1022700000001D4040420F0098030020704700BF3F
:1022800000207047002070470820704710B50446B2
:10229000006918B1A169091A03F07CFD204610BD40
:1022A00010490B68486B0A68496B02F07F02C1F362
:1022B000036101320431B2EB410F10D303F07F030D
:1022C000C0F30360053B0130A3EB4003DBB2054ADA
:1022D000106800F07F000130C01AC0B270470023C0
:1022E000F5E700BF00001D402DE9F041062186B052
:1022F00004468F4804F096FE8E4803F001FA8E4A99
:102300008E4B126812BA1A602268A2F558720A2A15
:1023100000F2CD80DFE802F02126394A596C7F9225
:1023200099B20600227B83F84720627B83F848201D
:10233000A27B83F84920E27B83F84A20227C83F841
:102340004B20627C83F84C20A27C83F84D20E27CF9
:1023500083F84E2006B0BDE8F081D4E90312C3E94A
:102360000112F7E7627B207BA17B5A73E27B94F832
:1023700010C018739973607CA17CDA73E27C83F8D7
:1023800010C058749974DA74E4E7227B1A75627B82
:102390005A75A27B9A75E27BDA75227C1A76627C8A
:1023A0005A76A27C9A76E27CDA76D3E7227B1A7799
:1023B000627B5A77A27B9A77E27BDA77227C83F87A
:1023C0002020627C83F82120C4E7227B83F822202E
:1023D000627B83F82320A27B83F82420E27B83F8AE
:1023E0002520227C83F82620627C83F82720B1E711
:1023F000227B83F82820627B83F82920A27B83F844
:102400002A20E27B83F82B20227C83F82C20627C1C
:1024100083F82D209EE7227B83F82E20627B83F8B1
:102420002F20A27B83F83020E27B83F83120227CAE
:1024300083F83220627C83F833208BE7227B003ADA
:1024400018BF012283F8362084E7227B83F83720E7
:10245000627B83F83820A27B83F83920E27B83F803
:102460003A20227C83F83B20627C83F83C20A27CCB
:1024700083F83D20E27C83F83E206BE7227B83F8E3
:102480003F20627B83F84020A27B83F84120E27BDF
:1024900083F84220227C83F84320627C83F8442026
:1024A000A27C83F84520E27C83F8462052E7244949
:1024B00003A803F075F9217B684603F0E7F9694644
:1024C00003A803F051FA1F4903F056FA01461948D0
:1024D00003F0F0F8684603F09DF903A803F09AF9B9
:1024E000E37A012B7FF636AF04F10C06DFF8548057
:1024F000104F3546684616F8011F03F0C7F96946C4
:1025000003A803F06BF9414603A803F035FA01462E
:10251000384603F0CFF803A803F07CF9684603F0CF
:1025200079F9A5F10A03E27A1B1B9A42E1DC11E773
:102530005C060020F8D70020543C01209838012088
:1025400064060020700600202DE9F0479E4C8AB0FA
:102550002378013B032B50D8DFE813F0E401A101FD
:102560005E01F300994D07AF994904AE384603F078
:1025700017F92B693046197803F088F93146384647
:1025800003F0F2F90146934803F094F8304603F063
:1025900041F9384603F03EF92B7BEA7A13FB02F34C
:1025A000012B27DD4FF00108DFF868A2DFF8249245
:1025B0005146384603F0F4F82B69304613F80810FA
:1025C00008F1010803F062F9314638465FFA88F8ED
:1025D00003F0CAF90146484603F06CF8304603F0B0
:1025E00019F9384603F016F9EB7A2A7B13FB02F34C
:1025F0009845DDDB774803F083F8774D2B68594227
:1026000003F0030201F0030158BF4A42032A4ED8E7
:10261000DFE802F088796A5556227049704802F066
:10262000CBFA704B187BDA7A196912FB00F26C480E
:10263000D2B202F0C1FA064604F072FD6A4B1B7872
:10264000002B33D0694B1B78DB072FD5684B694AC9
:102650001B6812689B1A0E2B28D9674904A803F03F
:102660009FF80A22314601A803F028F901A904A81D
:1026700003F07AF9614903F07FF92178044607A84D
:1026800003F004F907A9204603F06EF9014651480A
:1026900003F010F84F4803F033F807A803F0BAF836
:1026A00001A803F0B7F804A803F0B4F82B68032BD3
:1026B00040F38A8101332B600AB0BDE8F087504AAD
:1026C0001278002AF3D02378042B00F2818301A230
:1026D00052F823F05906000063060000ED0D0000DB
:1026E000A10D00009D0D0000464A1278002ADED0A0
:1026F0002378042B00F26E83DFE813F0CD02CB02C7
:10270000C902C702A602404A1278002ACFD0237815
:10271000042B00F26183DFE813F0EC02EA02E80226
:10272000E602C502394A1278002AC0D02378042B69
:1027300000F25483DFE813F00B03090307030503DA
:10274000E402334D2978002900F04B824B1EEE7ACB
:10275000287B2A6900FB03F32F8902EB030C12F894
:1027600003E01E4A9CF8033043EA0E639CF801E044
:102770009CF802C043EA0E43B7FBF6F743EA0C238A
:102780003B4417683FBA9F4200F32E826978AB7AC8
:10279000002B00F02481002768687E1CC35D805DEB
:1027A00098420BD312F803C001332869DBB200F85A
:1027B00001C001316868805D9842F3D20237AB7A7C
:1027C000FFB2BB42E8D8EFE0A3E800209833012035
:1027D00010CC0020F8D70020E83A012098380120DA
:1027E00044370120343C01208A3C0120893C0120EF
:1027F000543C0120643C012054CC00202CCC00200F
:10280000823C0120813C0120803C01207F3C012052
:10281000183C012070060020974D2978002900F00F
:10282000DD814B1EEE7A287B2A6900FB03F32F899A
:1028300002EB030C12F803E0904A9CF8033043EAE1
:102840000E639CF801E09CF802C043EA0E43B7FB1C
:10285000F6F743EA0C233B4417683FBA9F4200F364
:10286000CF816978AB7A002B3FF47DAE0027686892
:102870007E1CC35D805D98420BD312F803C0013308
:102880002869DBB200F801C001316868805D9842B8
:10289000F3D20237AB7AFFB2BB42E8D884E0784D7E
:1028A0002978002900F097814B1EEE7A287B2A694F
:1028B00000FB03F32F8902EB030C12F803E06F4ACD
:1028C0009CF8033043EA0E639CF801E09CF802C0D8
:1028D00043EA0E43B7FBF6F743EA0C233B44176881
:1028E0003FBA9F4200F398816978AB7A002B00F0E1
:1028F000D680002768687E1CC35D805D98420BD33C
:1029000012F803C001332869DBB200F801C00131BD
:102910006868805D9842F3D20237AB7AFFB2BB425F
:10292000E8D841E0574D2978002900F051814B1E2D
:10293000EE7A287B2A6900FB03F32F8902EB030C54
:1029400012F803E04D4A9CF8033043EA0E639CF80A
:1029500001E09CF802C043EA0E43B7FBF6F743EAF6
:102960000C233B4417683FBA9F4200F361816978AA
:10297000AB7A002B00F0E080002768687E1CC35D06
:10298000805D98420BD312F803C001332869DBB293
:1029900000F801C001316868805D9842F3D20237C7
:1029A000AB7AFFB2BB42E8D82378013B032B3FF65A
:1029B00024AE01A252F823F0770B0000DD0A0000DC
:1029C000A50500001D0A00002F4B188802F0FEFF2D
:1029D0002B6801332B600AB0BDE8F0872B4D07AFA1
:1029E0002B4904AE384602F0DBFE2B6930461978DD
:1029F00002F04CFF3146384602F0B6FF014625484A
:102A000002F058FE304602F005FF384602F002FFA1
:102A10002B7BEA7A13FB02F3012B7FF7EBAD4FF030
:102A20000108DFF874A0DFF86C905146384602F0D8
:102A3000B7FE2B69304613F8081008F1010802F0C0
:102A400025FF314638465FFA88F802F08DFF0146CF
:102A5000484602F02FFE304602F0DCFE384602F017
:102A6000D9FEEB7A2A7B13FB02F39845DDDB09489C
:102A700002F046FEC1E500BF9833012098380120DE
:102A80007C330120343C0120703C0120183C0120A3
:102A900010CC0020F8D7002070060020B14D07AF01
:102AA000B14904AE384602F07BFE2B6930461978F6
:102AB00002F0ECFE3146384602F056FF0146AB48C4
:102AC00002F0F8FD304602F0A5FE384602F0A2FE04
:102AD0002B7BEA7A13FB02F3012B7FF78BAD4FF0D0
:102AE0000108DFF8C4A2DFF884925146384602F0AC
:102AF00057FE2B69304613F8081008F1010802F060
:102B0000C5FE314638465FFA88F802F02DFF0146CF
:102B1000484602F0CFFD304602F07CFE384602F017
:102B200079FEEB7A2A7B13FB02F39845DDDB8F48B5
:102B300002F0E6FD61E58E4D07AF8B4904AE3846E5
:102B400002F02EFE2B693046197802F09FFE3146C6
:102B5000384602F009FF0146844802F0ABFD3046DA
:102B600002F058FE384602F055FE2B7BEA7A13FB42
:102B700002F3012B7FF73EAD4FF00108DFF828A2EA
:102B8000DFF8E8915146384602F00AFE2B693046DC
:102B900013F8081008F1010802F078FE31463846B3
:102BA0005FFA88F802F0E0FE0146484602F082FD36
:102BB000304602F02FFE384602F02CFEEB7A2A7BDC
:102BC00013FB02F39845DDDB684802F099FD14E53C
:102BD000EE7A731EADE6EE7A731E67E6EE7A731E2A
:102BE00021E6EE7A731EB3E54B1CB34200F0E080A1
:102BF000DBB210FB03F0C0B201462B706870C6E573
:102C00004B1CB34200F0E080DBB210FB03F0C0B21B
:102C100001462B70687025E64B1CB34200F0D08053
:102C2000DBB210FB03F0C0B201462B7068705CE6AB
:102C30004B1CB34200F0C080DBB210FB03F0C0B20B
:102C400001462B70687093E64A4B187BDA7A196953
:102C500012FB00F24848D2B201F0AEFF064604F083
:102C60005FFA464B1B78002B3FF420AD444B1B789A
:102C7000DA077FF51BAD434B434A1B6812689B1A6A
:102C80000E2B7FF613AD4149E8E4414BDDE7354BB0
:102C9000DBE7374BD9E756223E49374801F08CFF36
:102CA0000646DCE7334B187BDA7A196912FB00F22F
:102CB0003948D2B201F080FF064604F031FA2F4BBA
:102CC0001B78002B3FF4F2AC2D4B1B78D9077FF516
:102CD000EDAC2C4B2C4A1B6812689B1A0E2B7FF60E
:102CE000E5AC2E49BAE42A4BDDE71E4BDBE7204B6F
:102CF000D9E756222749284801F05EFF0646DCE75F
:102D00001C4B187BDA7A196912FB00F22448D2B204
:102D100001F052FF064604F003FA184B1B78002B13
:102D20003FF4C4AC164B1B78D8077FF5BFAC154BEE
:102D3000154A1B6812689B1A0E2B7FF6B7AC19490F
:102D40008CE4134BDDE7074BDBE7094BD9E7562251
:102D50001049134801F030FF0646DCE7054B61E4FB
:102D60000B4B5FE47C33012010CC0020F8D700200F
:102D7000343C0120183C0120143601208A3C0120FB
:102D8000893C0120543C0120643C012044CC0020BB
:102D90009833012098380120E434012034CC0020FD
:102DA000B43301201CCC0020700600200C4B39E409
:102DB000002108460B4620E7002108460B4640E765
:102DC000002108460B4630E7002108460B4620E765
:102DD000002631E4002642E700266EE700269AE747
:102DE0007C3301202DE9F0439A4B83B09A490022AD
:102DF00001930B6AC3F3012308336B4413F8043CBB
:102E0000C0E90122C0E90322002B00F0098100F58E
:102E1000005691492420914B0124914A0225C6F87D
:102E20000C091220C3F8D0208A6E8E4B42F4703207
:102E30008A6641F2B00186F815498B4A8B4CC3F87B
:102E40001C01C3F80C13E564C3F82001C3F8101388
:102E5000136823F000431360136843F0A04313602A
:102E60001368DB01FCD553687F4943F008035360C6
:102E7000136843F0804313600B68DF02FCD40A68D8
:102E8000794B42F000720A601A6812F00072FBD1AE
:102E9000754B1968CD01FCD5196841F400311960F2
:102EA000196841F480311960196841F48051196042
:102EB000196841F400511960196841F480011960E2
:102EC000196841F400211960196821F4084119605A
:102ED000596B41F4E0215963196841F400111960FC
:102EE000196841F0806119601D68196805F08075E6
:102EF00041F0A04119605C490B68DC01FCD50B680E
:102F0000DFF874E123F00053DFF870C1564F0B6017
:102F100000234B6218468B62096803EB0E0103EB3A
:102F20000C0401330901A400C860DBB2886048606A
:102F300008602060396801F07F0101318B42ECD3D9
:102F4000B86400243861F96A3B6BF9623B633B6803
:102F5000DFF82491444FDFF8248119E03B6803F047
:102F60007F030133B2EB930F34BF4FF080634FF018
:102F70008C630B607B6BC3F300439B0703603B6870
:102F8000013403F07F03E4B2013322469C421FD296
:102F90003B6804EB090104EB080003F07F0309011F
:102FA00080000133B2EB530FD8D34FF000630B60B6
:102FB0003B68980003D5FFF773F9A042DFD80123DF
:102FC0001F2C03FA04F323D8BA6A1343BB62D6E773
:102FD0003DB93B68244A23F080533B601368D90114
:102FE000FCD4214A136823F0805313601368DB017B
:102FF000FCD4D6F80C2901211D4B03EB521302F02F
:103000001F029B0001FA02F21A6003B0BDE8F083D0
:10301000A4F1200101237A6A8B4013437B62AEE75F
:103020000B6A144A23F47F7343F480730B621368B2
:10303000002B3FF4ECAE0C4A00F500561C68184615
:103040005268D6F81019C2F3C0026368520098475C
:10305000DFE600BF3C18500000C00F4000EC00202D
:103060002D01000000801F4000001D4000841F4013
:1030700040380038581A012008D0010420420710B7
:103080002DE9F843A64B1B78042B09D8DFE813F091
:10309000050039013E0143013401A24B00221A8090
:1030A000A14D01210D20A14C02F00EFDA04F2E6874
:1030B00040F2EE28DFF8E89204F032F82378002B93
:1030C00000F096803B78D80740F192802B68D9F8C1
:1030D00000209B1A0E2B40F28B80964801F0D4FD05
:1030E000954B1870002800F098800F21934803F04A
:1030F00099FF934802F004FB9FED920A8D4801F07E
:103100009BFF002270218B4801F0D4FF04218948E5
:1031100002F00EF88C4801F0B7FD8C4B18700028B7
:1031200040F08A800D218A4803F07CFF844802F039
:10313000E7FA884801F0A8FD874B1870002840F096
:1031400098800D21854803F06DFF7D4802F0D8FA84
:10315000834801F099FD834B1870002840F0A68049
:103160000D21814803F05EFF754802F0C9FA7F48DF
:103170007F4DFFF737FE00227E497C48FEF7C0FFF7
:103180002B6843F0A0432B602B68D901FCD52C6839
:1031900014F0005400F0AE80FFF782F82B6804466C
:1031A00003F07F030133984280F09680704D012632
:1031B0000BE0AA6A1343AB622B68013403F07F0370
:1031C000E4B201339C4280F087802B689A0003D5DB
:1031D000FFF766F88442EFD31F2C06FA04F3E8D910
:1031E000A4F120036A6A06FA03F313436B62E3E770
:1031F0002B6822789B1B32B1B3F5FA6F3FF66DAFA7
:1032000003F08EFF58E74345FAD94A4801F03CFDE8
:10321000494B187000287FF468AF0D21564803F021
:1032200001FF474802F06CFA474801F02DFD474B7B
:10323000187000283FF476AF0F21504803F0F2FEDB
:103240003F4802F05DFA9FED3F0A3F4801F0F4FE6F
:10325000002270213C4801F02DFF04213A4801F082
:1032600067FF3C4801F010FD3B4B187000283FF40D
:1032700068AF0F21424803F0D5FE314802F040FA12
:103280009FED300A334801F0D7FE0022702131480B
:1032900001F010FF04212F4801F04AFF304801F0EF
:1032A000F3FC304B187000283FF45AAF0F2135481B
:1032B00003F0B8FE224802F023FA9FED220A2848C4
:1032C00001F0BAFE70212648002201F0F3FE04212D
:1032D000234801F02DFF4AE7254A136823F0805365
:1032E00013601368DB01FCD4274B284AC3F8042879
:1032F000BDE8F8832B6859E7254A0A4B12891A80E2
:10330000CEE6244A074B12891A80C9E6224A054BA9
:1033100012891A80C4E6214A024B12891A80BFE63C
:10332000A3E80020703C0120543C01208A3C01208D
:10333000893C0120B43301207F3C012080CC002057
:10334000F8D7002000C06444E4340120803C012010
:1033500090CC002014360120813C0120B0CC00200C
:1033600044370120823C0120D0CC002088F000208E
:1033700000001D4040420F0070CC0020A0CC002077
:10338000C0CC0020E0CC00208810012029030000E0
:10339000183C0120343C01207C330120983301206B
:1033A000643C012000293BD082682DE9F843D0E934
:1033B00000530C466FF00041D21A5D1B0646944242
:1033C000A1EB050023D9A04251D3AC42234638BF1C
:1033D0002B46EF184ED257BBB8460021012C08EB04
:1033E000050008F8051001D0621E38D1D6E9009218
:1033F000A2EB0902002A23DCB9F1000F33D12544E6
:10340000C6F80080B76045447560BDE8F8830021C8
:103410001846012C00F8011B03D17060BDE8F88349
:103420007047621E03EB040515D12846F5E78F426D
:1034300028BF0F46384602F0A5FC80460744CCE77B
:103440004946404639F060F9B168A1EB09014846A8
:1034500002F0A0FCD3E739F0D3F92846DDE70130CC
:1034600039F0CEF9C2E7B168A1EB0901EFE70248F4
:1034700016F062FC0F46DDE70010002010B5044690
:103480004FF4987102F086FC204610BD00F5805381
:10349000D3F8003EDB0069D5374B2DE9F04F5E6B6A
:1034A0004FF0000E41F6146941F60467C6F3036657
:1034B00041F60868F600083609E013685B0F052B33
:1034C00034D00EF1010E5FFA8EF39E4250D90EEB0E
:1034D0004E0500EBC50C0CF5F05213685B0F012B89
:1034E00013680DD05B0F022BE7D15CF807308B42DD
:1034F000E7D85CF808308B42E3D30120BDE8F08FB9
:1035000013F4607FDDD06D00002304E01468C4F381
:10351000C21C6345D5D2013305EB030CDBB20CF5BD
:10352000F06C50F82C408C42F0D1E6E7136813F4AD
:10353000607FC6D0CC446D00012405E01368C3F35E
:10354000C21301339C42BCD22B19DCF800A0013419
:1035500003F5F0630AEA010AE4B250F82330DCF81C
:1035600000B003EA0B039A45E8D1C6E70120704793
:103570000020BDE8F08F00BF00001D4001EB4101BD
:1035800070B500EBC10404F5045EDEF80030DB002A
:1035900028D5DEF800305B0F012B0BD0DEF80030B1
:1035A0005B0F022B42D0DEF800305B0F052B1BD0E7
:1035B000002070BDDEF8004014F4607FF8D00023D6
:1035C0004D0005E0DEF80010C1F3C21C6345EFD2E8
:1035D000013305EB030CDBB20CF5046C50F82C4006
:1035E0009442EFD1012070BDDEF8005015F4607FE9
:1035F000DED042F2141549000123254407E0DEF82D
:103600000040C4F3C21C0CF1010C6345D0D22C68FD
:1036100004EA020CCC18013304F50464DBB250F860
:1036200024402E683440A445E9D1DBE742F204137C
:10363000E3589342BCD842F20813E058904234BF9A
:103640000020012070BD00BF1F2910B422D8012323
:1036500018488B400363184B4FF00064D0790B443B
:103660001B011C60E8B1117A1068090520F0604068
:1036700041F4C0015860D0685DF8044B00BA98600E
:10368000106900BAD860D27A41EA024242F0406240
:103690001A607047A1F1200401230648A340C362C9
:1036A000D9E714680548117A00EA84400905586092
:1036B000E1E700BF00001D4008D001040000FC1F2E
:1036C0000B78632B10B5044682B0104613D003F577
:1036D0001C6304EB83035B6813B101929847019864
:1036E00004F50054D4F804381BB102B0BDE8104012
:1036F000184702B010BD04F50054D4F80437002B6D
:10370000F0D0019298470198ECE700BF2DE9F04F07
:103710008C468DB00F4605466C46064600F11008F3
:103720004FF00109DFF814A1BCE80F000FC49CE8BA
:10373000030084E8030056F8044F5CB19DF914209F
:10374000A36809FA02F1194256D02368D3F800B0F1
:10375000D3454CD14645EED105F5005393F80037DB
:10376000002B5FD0EE8A4FF01A0C386806AC7968EF
:10377000F6B2BA68FB680CFB06560FC40023386922
:103780007969182286F81A31EB8A0DEB0206DBB252
:103790000CFB035303C483F81B21EC8AE4B20FCE65
:1037A0000CFB0454C4F81C01C4F82011C4F82421F3
:1037B000C4F8283103CEC4F82C01C4F83011EA8AC9
:1037C000AB8A92B29BB283F480739A4224D0EB8A84
:1037D0000133C3F30803EB822B8B9BB2FF2B03D87F
:1037E0002B8B01339BB22B830DB0BDE8F08F9DF87E
:1037F000153069462046D847237C002BAAD0236881
:10380000D3F800B09DF81530D345A3D020464FF033
:10381000FF326946D8479DE7AB8A0133C3F30803FB
:10382000AB82D4E73B7D3A4606A928468DF818308E
:10383000FFF746FF0DB0BDE8F08F00BF2901000083
:1038400000F5005393F80137002B00F0DB80DFF820
:103850006CC22DE9F04F0F4689B005460E4602AC0A
:103860000FCF0FC497E8030084E80300DCF80030B2
:103870009B0052D5DCF8343000244FF06309C3F3C9
:10388000036A22464FEACA0A0AF1080A0CE05B0FF3
:10389000022B3B6800F09A805B0F052B00F0DD8067
:1038A0000134E2B2924538D996F91430632B34D002
:1038B00004EB440805EBC80B0BF5F0573B6813F01D
:1038C000604FEDD03B685B0F012B3B68DFD1C3F34A
:1038D0000043F2799A42E3D13B6813F4607FDFD072
:1038E0004FEA480B002306E03A685FFA88F3C2F318
:1038F000C2129342D4D203F10108029A0BEB0803DF
:1039000003F5F06355F823309A42EDD102A9284619
:103910008DF81C90FFF7FAFEE6E70023674F8DF85D
:103920000E303C6814F000543FD0FEF7B9FC3B6801
:10393000044603F07F030133834233D942F2041774
:1039400042F20818DFF8749196F91430A34220D09F
:1039500004EB440105EBC10202F5045ADAF8003029
:1039600013F0604F15D0DAF80030F079C3F3C0637C
:1039700098420ED1DAF800305B0F012BDAF80030F4
:1039800041D05B0F022B12D0DAF800305B0F052B11
:103990005BD0D9F80030013403F07F03E4B2013387
:1039A0009C42D1D309B0BDE8F08F3B68C6E7D1593E
:1039B000029B8B42EDD352F808209342E9D802A92A
:1039C00028468DF81C40FFF7A1FEE2E7C3F3004351
:1039D000F2799A427FF464AF41F604635BF8032006
:1039E000029B9342FFF45CAF41F608625BF8022051
:1039F00093423FF655AF02A928468DF81C90FFF779
:103A000085FE4DE7704713F4607FC2D04A00002363
:103A100007E0DAF800105FFA8BF3C1F3C2118B42B2
:103A2000B7D203F1010B029902EB0B0303F5046318
:103A300055F823309942ECD102A9284600928DF81E
:103A40001C40FFF763FE009AE3E7029A21462846EE
:103A5000FFF794FD00289CD0B1E73B6813F4607F2A
:103A60003FF41EAF41F6146301275B440AE00BF5F7
:103A7000F05101370968FFB2C1F3C21101318F4221
:103A8000BFF40EAF07EB4801186801F5F06155F877
:103A900021E00299D3F800C008400EEA0C018842E8
:103AA000E5D102A9284601938DF80E2000928DF8E9
:103AB0001C90FFF72BFEDDE90023D8E700001D4036
:103AC0002DE9F04F934D9BB0934F08AC05900FCD6F
:103AD0000FC495E8030084E803007E6AB96AD7F84A
:103AE0002C90386B3B68039113F40043049003D18E
:103AF0003A68950000F11881049B43F00103B9F185
:103B0000000F00F00281B9FA89F3834DC3F140033D
:103B10002C68DFB214F00054029700F09F82FEF789
:103B2000BFFB2B68044603F07F030133984280F00B
:103B3000C280874240F2BF80059B671CDFF8D8B186
:103B400003F50053FDB2019706931AE0042A00F032
:103B50005881082A00F0E281DBF800309DF804402B
:103B600003F07F03029A0133A24288BFAB4205F102
:103B7000010594BF01230023002B40F09C80631CAF
:103B80000193C4F12002039BA4F1200A06FA02F17A
:103B9000E3400B4326FA0AF10B43DF07DCD5049B15
:103BA00009FA02F2E340134329FA0AF21343D80751
:103BB000D2D5DFF87081A0444FEA0818D8F8003059
:103BC000190EC3F3036201F00B010229BED1D8F82C
:103BD000041003F4001021F06041002812BF4FF0E0
:103BE000010C4FF0000C890C062A8DF827C00891B3
:103BF00002D101228DF82920ADF82430C3F303430C
:103C00008DF8344000288DF82B30069B93F8153939
:103C10008DF83530D8F808308DF82F30D8F80830C6
:103C20004FEA13238DF82E30D8F808304FEA1343AB
:103C30008DF82D30D8F808304FEA13638DF82C300A
:103C4000D8F80C308DF83330D8F80C304FEA132305
:103C50008DF83230D8F80C304FEA13438DF83130FC
:103C6000D8F80C304FEA13638DF8303014BF4FF0A2
:103C70008C634FF080631F2CC8F80030DBF80830ED
:103C80004FF0010331D8A34021460598CBF83030DE
:103C9000089AFFF773FC002832D108A90598FFF7AE
:103CA000CFFD08A8AFF3008008A8AFF3008008A8F4
:103CB000AFF3008050E7184A1848116A0268184BA1
:103CC0004A40134043B1059B03F58053B3F8D42C0D
:103CD00092B20F2A40F2DB810F4A136A0B43136240
:103CE000BFF34F8F1BB0BDE8F08F03FA0AF32146F4
:103CF0000598CBF82C30089AFFF740FC0028CCD070
:103D000008A90598FFF702FDC7E7B3FA83F320334C
:103D1000FBE600BFD803002000001D40403001201A
:103D2000BFFF070008D001048C067FF5E5AE8106D1
:103D30007FF5E2AED7F88020C94C02F40011C2F33F
:103D40000050ADF824200029C2F303414FEAD252BB
:103D50008DF82B10D7F884108DF8280018BF01209B
:103D600021F0604108BF00208DF826204FF00002AE
:103D700008BF890C8DF827000CA80891D4F888108A
:103D8000D1400832202A00F8011DF7D10DA9B4480E
:103D9000D0F88C20DA400833202B01F8012DF7D120
:103DA000059A02F5005292F815298DF83520632204
:103DB0008DF8342082680363049B5A0601D54023A2
:103DC0000363049B1B0602D5A54B80221A63059C46
:103DD00008A92046FFF734FD08A8AFF3008008A823
:103DE000AFF3008008A8AFF3008008992046FFF7E2
:103DF0004DFB00283FF480AE08A90598FFF786FC2C
:103E00007AE603F40012002AD8F80420ADF8243032
:103E1000C3F303438DF8344022F060428DF82B3019
:103E200018BF0121069B04BF920C002193F815399D
:103E300008928DF83530D8F80830059A8DF82F3073
:103E4000D8F808308DF827101B0A8DF82E30D8F8D6
:103E500008301B0C8DF82D30D8F808301B0E8DF86B
:103E60002C30D8F80C308DF83330D8F80C301B0AD1
:103E70008DF83230D8F80C301B0C8DF8313004F648
:103E8000022352F82330D8F80C20120E8DF830207F
:103E90000BB108A89847069BD3F808390BB108A8BE
:103EA0009847059901F58052B2F81E3B17469BB220
:103EB000002B00F0D780B2F81A3B1A220DF1500CFB
:103EC00003F00F03E04602FB031341F632320EA962
:103ED00003EB020A98588E460791DAF80820DAF8C0
:103EE0000410DAF80C30ACE80F00DAF81000DAF859
:103EF0001410ACE80300B8E80F00AEE80F0098E833
:103F000003008EE803009DF94C30591C00F023811A
:103F10009C427FF421AE079AE1B21EE103F4001245
:103F2000002AD8F80420ADF82430C3F303438DF8F9
:103F3000344022F060428DF82B3018BF0121069BDF
:103F400004BF920C002193F8153908928DF8353092
:103F5000D8F80830059A8DF82F30D8F808308DF849
:103F600027101B0A8DF82E30D8F808301B0C8DF85E
:103F70002D30D8F808301B0E8DF82C30D8F80C30C6
:103F80008DF83330D8F80C301B0A8DF83230D8F861
:103F90000C301B0C8DF83130D8F80C301B0E8DF81E
:103FA000303004F6022352F823300BB108A89847AA
:103FB000069BD3F808390BB108A89847059901F575
:103FC0008058B8F81E3B9BB2002B58D0B8F81A3B6B
:103FD0001A220DF1500C03F00F03674602FB031386
:103FE00041F632320EA903EB020A98588E46079129
:103FF000DAF80820DAF80410DAF80C30ACE80F0030
:10400000DAF81000DAF81410ACE803000FCFAEE8CD
:104010000F0097E803008EE803009DF94C305A1C0E
:1040200000F0B2809C427FF497AD079AE1B2059808
:10403000FFF70AFBB8F81A3B013303F01F03A8F897
:104040001A3BB8F81E3B9BB2002B3FF485ADB8F885
:104050001E3B013B9BB2A8F81E3B7DE52B686BE540
:1040600000001D401F2C4FF001036BD903FA0AF327
:10407000CBF82C304FF00063C8F800306CE51F2CF3
:104080004FF0010362D8A340CBF8303064E5B3F8B9
:10409000D42C92B20F2A05D8B3F8D42C013292B2A4
:1040A000A3F8D42CB3F8D22CB3F8D24C02F00F0200
:1040B000A4B203EB8202C2F8D81CB3F8D02C92B29F
:1040C00082F01002944206D1B3F8D02C013202F0F3
:1040D0001F02A3F8D02CB3F8D22C2D4C013202F0E1
:1040E0001F02A3F8D22CE469B3F89C2DA4B292B2BB
:1040F0000F2A05D8B3F89C2D013292B2A3F89C2D5B
:10410000B3F89A2D02F00F0203EB4202A2F89E4D83
:10411000B3F89A4DB3F8982DA4B292B282F010027F
:10412000944206D1B3F8982D013202F01F02A3F891
:10413000982DB3F89A2D0160013202F01F02A3F806
:104140009A2DC9E5A340CBF8303093E703FA0AF380
:10415000CBF82C3000E5079A21460598FFF774FA52
:10416000B7F81A3B013303F01F03A7F81A3BB7F85F
:104170001E3B9BB2002B3FF4EFACB7F81E3B013B5C
:104180009BB2A7F81E3BE7E4079A21464FE700BF22
:1041900000001D402DE9F04300F500578FB00446A4
:1041A00097F8003713B9012387F80037238B9BB2A8
:1041B000002B57D1D7F80C2904F58056724B02F02A
:1041C0001F0103EB521301229B008A401A60B6F8CC
:1041D0001E3B9BB283B3B6F81A3B1A2208AD0DF111
:1041E000080C03F00F03AE4602FB034341F63232E4
:1041F00003EB02089858D8F80410D8F80820D8F82B
:104200000C300FC5D8F81000D8F8141003C5BEE85C
:104210000F00ACE80F009EE803008CE803009DF956
:104220001C104B1C54D0594B0B441B011B68C3F38F
:104230000363082B00F08B80D7F80C29544B02F055
:104240001F0103EB521301229B008A4000211A60D8
:10425000238BB6F81E0B9BB280B240EA03300FB03E
:10426000BDE8F083A68A1A23B4F814C008ADF6B2EC
:104270000CF1010C03FB0646CCF3080CD6F81C012C
:10428000D6F82011D6F82831D6F824210FC5D6F853
:104290002C01D6F83011A4F814C0238B9BB203C5AF
:1042A0001BB1238B013B9BB2238308AD02AE0FCD24
:1042B0000FC695E8030002AA86E803009DF81C30AB
:1042C0000DF1070120468DF80730FFF7F9F971E786
:1042D000DFF8C080D8F8005015F0005550D0FDF739
:1042E000DFFFD8F80030054603F07F030133834237
:1042F000A2D9DFF89890DFF89C8008E0D8F8003069
:10430000013503F07F03EDB201339D4294D205EBFA
:1043100009031B011B68C3F30363082BEED102AA38
:1043200029462046FFF790F9B6F81A3B013303F00F
:104330001F03A6F81A3BB6F81E3B9BB2002BDDD03C
:10434000B6F81E3B013B9BB2A6F81E3BD6E702AA7D
:10435000C9B22046FFF778F9B6F81A3B013303F0EB
:104360001F03A6F81A3BB6F81E3B9BB2002B3FF486
:1043700063AFB6F81E3B013B9BB2A6F81E3B5BE762
:10438000D8F80030B5E700BF6038003808D0010425
:104390004038003800001D403B4B1B6A2DE9F041BE
:1043A00013F0200E86B066D100F580540646B4F8AE
:1043B0001E3B9BB2102B62D0B4F81C8B0D461A2703
:1043C000086808F00F084968AA68EC46EB6807FB24
:1043D0000848ACE80F0028691822696988F830EBB2
:1043E00041F6303EB4F81C3B03F00F0307FB0343D8
:1043F00083F8312BB4F81C3B03F00F03ACE8030047
:1044000007FB0366EC46B644BCE80F00CEF802009A
:10441000CEF80610CEF80A20CEF80E30BCE8030025
:10442000CEF81200CEF81610B4F81C2BB4F81A3BD4
:1044300092B29BB283F010039A4206D1B4F81A3BB1
:10444000013303F01F03A4F81A3BB4F81C3B0133FB
:1044500003F01F03A4F81C3BB4F81E3B9BB20F2BC8
:1044600009D8B4F81E3B012003449BB2A4F81E3BBC
:1044700006B0BDE8F081012006B0BDE8F0817046CD
:1044800006B0BDE8F08100BF00001D408B7D70B517
:104490000D4686B004463F4E002B3CD1336813F0E6
:1044A000005C25D0FDF7FCFE3368844603F07F03F3
:1044B000013398421ED23849364807E003685FFA54
:1044C00082FC03F07F0301339C4513D20CEB010304
:1044D0000CF101021B011B68C3F30363082BEDD130
:1044E00020462A466146FFF7AFF8012006B070BDAE
:1044F0003368E0E70FCDEC46FF26ACE80F0095E807
:1045000003008CE80300694620468DF81460FFF72D
:1045100043FF06B070BD306810F0005030D0FDF79A
:10452000BFFE336803F07F030133834224D91A4965
:10453000184E05E0336803F07F03013398421BD225
:104540004318421C84461B01D0B21A681201F1D5EF
:104550001B68C3F30363082B14D06E460FCD0FC640
:1045600095E8030086E80300694620468DF814C0EC
:10457000FFF712FF06B070BD084B4FF0FF3CE7E7B6
:104580003368D4E720462A465FFA8CF1FFF75CF8DF
:104590000120ABE700001D4008D0010470001D4061
:1045A0002DE9F047614C4FF02509614D2046614EE1
:1045B00003F02EFB2A466049204603F049F95F4A82
:1045C0003F230024DFF8B48106F110007E2134601F
:1045D000B4615B4FDFF8A8A1C6E90223594BC6E9D5
:1045E00004447360FEF7DEFE2A464146304603F07F
:1045F0002FF9554E554BEA2106F110003460B36097
:104600001A233461F360524BC6E905447360FEF728
:10461000C9FE2A464146304603F01AF94D4E4E4B2C
:104620004A2106F11000C6F80C90B3604B4B346081
:1046300073603461C6E90544FEF7B4FE41462A467C
:10464000304603F005F9464E464A1E2306F1100097
:1046500096213460B461C6E90223434BC6E90444A1
:104660007360FEF79FFE41462A4630463F4E03F0F8
:10467000EFF8DFF810813B4615222621504600F066
:10468000C3FB2A463146504603F0E2F849463B4612
:10469000DFF8F4901422404600F0B6FB2A4631467B
:1046A000404603F0D5F8DFF8E4803B46132224218E
:1046B000484600F0A9FB2A463146484603F0C8F8B0
:1046C0003B4612220A21404600F09EFB2A46314614
:1046D000404603F0BDF8264B2649274803F5805293
:1046E0009C820360DC8219601C8303F50053A2F8EE
:1046F0001A4BC3F80C49A2F81C4BC3F81049A2F896
:104700001E4B83F81449A2F8D04CA2F8D24CA2F860
:10471000D44CA2F8984DA2F89A4DA2F89C4D83F87B
:10472000004783F80147BDE8F08700BF3C30012017
:10473000C0D80020343C0120755C000040020C020F
:10474000D839012080E800207C330120D5030609F8
:1047500008E60020983301207D010C0224E60020A9
:10476000183C01209A020E0570E80020BD020000EE
:1047700088F00020A0300020581A0120CD0200004F
:10478000B4330120E43401201436012044370120E1
:10479000044B1A685166D36D13F4F81FFBD0506FA9
:1047A000C0B27047A8D70020704700BF134AD37C1F
:1047B00013B3D80704D5906A4FF0E021C1F8000187
:1047C000990704D5D06A4FF0E021C1F804015807D9
:1047D00004D5106B4FF0E021C1F80801190704D58A
:1047E000506B4FF0E021C1F80C01DB0604D5926B51
:1047F0004FF0E023C3F81021704700BFA8D7002076
:1048000002790346042A10B433D0013AD2B2022A04
:104810001ED8194951F822409A795879511E022917
:104820001CD892000128D2B214BF0721134902F00C
:10483000080002F0040208B141F000410AB141F061
:1048400080410F48C3E902415DF8044B32F078BF64
:104850009A790C4C511E58790229E2D9012807494E
:10486000074818BF0721C3E902415DF8044B32F045
:1048700067BF054CD0E700BFC404002007008000DC
:10488000A8D7002040420F000024F400014833F074
:1048900085B800BFA8D70020362900D970479D21D0
:1048A000014833F067B800BFA8D7002030B482B009
:1048B0000C4602AB03E90600C37C002B30D072B675
:1048C000C37CDA0708D54FF0E0214569D1F8802193
:1048D0002A408262C1F880219D0708D54FF0E0216F
:1048E0008569D1F884212A40C262C1F88421590720
:1048F00008D54FF0E021C569D1F888212A4002632C
:10490000C1F888211A0708D54FF0E021056AD1F8CF
:104910008C212A404263C1F88C21DB062FD462B679
:1049200083689C4235D0224B84609B69214AC3F343
:104930000111C3F3826352F821100133B1FBF3F28A
:10494000CCB1944227D8B2FBF4F3B2FBF3F2944219
:104950002CD3B3F5817F20D3174CC46003680322A6
:104960000020019918615A6201221C6419661A61BB
:1049700002B030BC70479942EFD3531CE9E74FF0C7
:10498000E022416AD2F890310B408363C2F8903143
:10499000C5E7C468E2E70024DFE7022BFBD9023B4E
:1049A0005A08140244EA02441C43D6E71A46E4E7D4
:1049B00000C00F4018440020FF7F7F0008B5034669
:1049C0000348083393E80600FFF770FF08BD00BFF7
:1049D000A8D70020002310B5064C1A4619462046D9
:1049E00000F09AFC0449054A07232160C4E9022328
:1049F00010BD00BFD83901208031002000093D00E2
:104A000001207047FB2070470379052B10B5044641
:104A100014D003680D4AD3F88030934213D1072293
:104A20000121204600F01AFD80224021204600F09E
:104A300015FD0523237101E002F072FB2379052B9C
:104A4000FAD0207E10BD05219847E8E7412A0000F2
:104A50000379012B10D003680A4AD3F880309342BF
:104A600010B504460AD100220121204600F0F6FCD0
:104A700001230120237110BD0120704701219847B7
:104A8000F1E700BF412A00000379032B1AD0037914
:104A9000042B10B5044611D003680D4AD3F88030BA
:104AA000934211D105220121204600F0D7FC0022BB
:104AB0004021204600F0D2FC0423237194F8280101
:104AC000C0B210BD0020704704219847EAE700BF3C
:104AD000412A000003682DE9F041354E0446DD68A7
:104AE00088461746B5425DD10279032A56D002792D
:104AF000042A10D0D3F880302E4A934255D1052293
:104B00000121204600F0AAFC00224021204600F0AE
:104B1000A5FC0423237194F82851EDB2002D3DD05B
:104B2000B8F1000F21D007B3EFF3108672B6BFF3D0
:104B30005F8FBFF34F8FBFF36F8F94F828303A78B1
:104B4000033B934204DC94F82820043AD2B23A7032
:104B5000404604F12D0101F07BF886F31088BFF385
:104B60005F8FBFF34F8FBFF36F8FEFF3108272B67B
:104B7000BFF35F8FBFF34F8FBFF36F8F002384F8B6
:104B8000283184F8283082F31088BFF35F8FBFF399
:104B90004F8FBFF36F8F2846BDE8F0810025284670
:104BA000BDE8F081A8470546B8E704219847A6E785
:104BB000C92A0000412A0000FB2AF8B51BD8036867
:104BC000044616460F461B6A98472379022B0CD0E1
:104BD00023682C4AD3F8803093424BD101222046DF
:104BE000114600F03BFC0223237123682046DB6A58
:104BF0009847054610B900252846F8BD00220D212A
:104C0000204600F02BFCE27A0021204600F026FC32
:104C1000227B0021204600F021FC627B00212046FF
:104C200000F01CFCA27B0021204600F017FC33465C
:104C30003A460021204600F0CDFC321D22212046BC
:104C4000D2B200F00BFC2379032BD5D023680D4A98
:104C5000D3F88030934211D103220121204600F085
:104C6000FDFB40222046114600F0F8FB03232846B6
:104C70002371F8BD022120469847AFE70321204663
:104C80009847E9E7412A000070B5044600F058FB58
:104C900038B194F826100546FF2900F084803629A3
:104CA00002D90025284670BD20460E4600F0F4FCCF
:104CB00080220121204600F0D1FB0A2000F086FE70
:104CC0000121204600F072FB8028EAD194F82600EA
:104CD000FF2815D0002100F0F7FE94F82720FF2AC6
:104CE0006AD0424B43F82240002A6FD0012A77D085
:104CF000022A5BD0032AD4D13D49F0B200F01EFF56
:104D000000220E21204600F0A9FB00220F212046A0
:104D100000F0A4FB2379022B0CD02368354AD3F88A
:104D20008030934258D101222046114600F096FB74
:104D30000223237172221D21204600F08FFB742272
:104D40001E21204600F08AFB04222621204600F086
:104D500085FB00222021204600F080FB0822212133
:104D6000204600F07BFB6C220621204600F076FBFB
:104D700080220721204600F071FB002208212046F6
:104D800000F06CFB002304224D2184F829312046D9
:104D900084F8253000F062FB8B220921204600F0C8
:104DA0005DFB284670BD4FF0FF3681E703221249B4
:104DB000F0B200F0C3FEA3E7104B1A78042A3FF6C6
:104DC00070AF511C84F8272019708AE703220C4920
:104DD000F0B200F0B3FE93E7022120469847A2E725
:104DE00003220849F0B200F0A9FE89E7102A012049
:104DF00069300000412A0000593000007A3C01204F
:104E0000393000004930000038B515461A460446CE
:104E100000F0BCFA094A0023FF212046226001224B
:104E200084F8265084F8283184F82C3184F827102F
:104E300084F82B2184F8253038BD00BF5C32002077
:104E400070B50446122100F0B1FA1C210546204637
:104E500000F0ACFAFF2212210646204600F0FEFACE
:104E60002379042B2AD02379042B4BD02379032BCD
:104E700003D02379052B18D070BD2A07F9D5E38A12
:104E800001339BB2E3822379022BF5D02368584A81
:104E9000D3F88030934240F0A7800122204611468B
:104EA00000F0DCFA0223237170BD6B07E4D505F036
:104EB000010525762379022BE8D170BD15F0A00FEE
:104EC00005D194F82B31002BCDD07006CBD4638A5A
:104ED00001339BB26382EFF3108272B6BFF35F8F30
:104EE000BFF34F8FBFF36F8F002384F8283184F80E
:104EF000283082F31088BFF35F8FBFF34F8FBFF36B
:104F00006F8F70BD6906B1D51321204600F04EFAAF
:104F100010210546204600F049FA0D2102462046A0
:104F200000F09CFA2B4604F129020021204600F0F3
:104F3000EFFA1921204684F8285000F037FA1A2198
:104F400040B20028B8BF03308310204684F82A31CD
:104F500000F02CFA94F92A3100B2002B20823EDBBB
:104F6000238A24491BB21B0181FB0321DA170B445E
:104F7000C2EBE3031BB2238294F8293113BB238ACB
:104F8000A43B1BB2238294F82830032B14D994F845
:104F90002A3094F8290094F82B10E07194F82C2012
:104FA0002372A3796172A2728BB9E37962799A4212
:104FB0000DD0E379FF2B0AD094F82831002B7FF431
:104FC00079AF70BD238A9D3B1BB22382DBE7A38AA6
:104FD000012213449BB2A38284F82821ECE7228AA1
:104FE00013441BB22382C7E702212046984754E7A7
:104FF000412A000089888888024B186808B1FFF7A9
:105000001FBF7047102A0120024B586808B1FFF7F4
:1050100017BF7047102A0120024B986808B1FFF7AC
:105020000FBF7047102A0120024BD86808B1FFF764
:1050300007BF7047102A0120B7EEC06A06219FED16
:10504000187B9FED195B38B526EE076B04462DEDF6
:10505000028BB0EE408A86EE057BFCEEC77B17EE36
:10506000905AC5F3074200F0F9F9C5F3072207216A
:10507000204600F0F3F90821EAB2204600F0EEF9EC
:10508000DFED0B7A0120B4EEE78ABDEC028BF1EE86
:1050900010FAACBF0346002384F8293138BD00BFA5
:1050A0000000000080842E410000000080844E40FB
:1050B00000C0424438B5054680F8252012BB1429AB
:1050C0000CDD8F2407224D21284600F0C7F9224627
:1050D00028460921BDE8384000F0C0B9012920DD8B
:1050E000112920DC8C1E64F07F04E4B204224D21DF
:1050F000284600F0B3F9224628460921BDE8384089
:1051000000F0ACB981F30402092142F07002D2B27E
:1051100000F0A4F9284604224D21BDE8384000F0F3
:105120009DB98024E2E74C1F64F07F04E4B2C9E734
:10513000052901D90020704701EB41010A4A5318A3
:1051400070B504465E789D78525C1D2100F086F9AA
:1051500032461E21204600F081F92A4626212046AB
:1051600000F07CF9012070BDA81E0060012070478E
:10517000002070478171704741717047C17270475C
:105180000173704741737047837B23EA0202114326
:1051900081737047C0797047007A7047407A7047D2
:1051A000807A7047008A00B2704700BF007970476C
:1051B00001717047408A80B2704700BF808A80B218
:1051C000704700BFC08A80B2704700BF10B5044668
:1051D00001E001F0A5FF23682046DB68984700281E
:1051E000F7D010BDF8B50C4E37683368DB1B8B4227
:1051F0000FD20D46044605E001F092FF3368DB1B39
:10520000AB4206D223682046DB6898470028F3D0DB
:10521000F8BD0020F8BD00BF543C01200379032BEA
:1052200008D110B5044601F07BFF2379032BFAD097
:10523000012010BD01207047F8B50B4E3768336868
:10524000DB1B8B420DD20C46054605E001F068FFE2
:105250003368DB1BA34204D22B79032BF6D0012049
:10526000F8BD0020F8BD00BF543C0120C36963B104
:1052700003682DE9F0411B6B0446134E134DB342F6
:105280002F6804D10120BDE8F081012070474FF064
:10529000640809E000F050FA08FB00F000F096FB0B
:1052A00023681B6BB342EDD02046984703460A2182
:1052B0000120002BE6D02B68E269DB1B9342E9D981
:1052C0000020BDE8F08100BFB1310000543C012056
:1052D0000022FF2110B4074C0271046042825DF885
:1052E000044B82824171C17281818273C282C26128
:1052F000704700BFB4310020704700BF704700BF47
:10530000704700BF704700BF704700BF41717047D2
:1053100081717047017170478371024B0171427155
:10532000036070474C310020002190F8240000F009
:10533000A1BB00BF012190F8240000F09BBB00BF7F
:1053400010B50446006A0368DB68984794F82400A7
:10535000FF2802D0012100F0B7FB23680A4ADB6F67
:10536000934209D1012194F8240000F083FB6420CA
:1053700000F02CFB012010BD20469847642000F06F
:1053800025FB012010BD00BF7533000070B5044639
:105390000E461546FFF79CFF034B204684F8246019
:1053A0002562236070BD00BFC430002070B5044684
:1053B0000D46EFF3108672B6BFF35F8FBFF34F8FCA
:1053C000BFF36F8F006A214A03681B6A93422FD193
:1053D00023681F4A9B6F934230D1002194F8240028
:1053E00000F048FB206A05F07F0103681B689847BE
:1053F000206A002103681B6898472368154A054600
:10540000DB6F93421FD1012194F8240000F032FB9E
:10541000206A114A03685B6A934212D186F31088AE
:10542000BFF35F8FBFF34F8FBFF36F8F284670BD01
:1054300098472368064A9B6F9342CED020469847F0
:10544000D0E79847EAE720469847E1E74133000074
:10545000693300007533000045330000F8B5044699
:105460000D461646EFF3108772B6BFF35F8FBFF39A
:105470004F8FBFF36F8F006A214A03681B6A934204
:1054800030D123681F4A9B6F934231D1002194F899
:10549000240000F0EFFA206A45F0800103681B68E1
:1054A0009847236A314605461A6818461368984794
:1054B0002368154ADB6F93421FD1012194F8240021
:1054C00000F0D8FA206A114A03685B6A934212D14D
:1054D00087F31088BFF35F8FBFF34F8FBFF36F8FDA
:1054E0002846F8BD98472368064A9B6F9342CDD063
:1054F00020469847CFE79847EAE720469847E1E7F4
:10550000413300006933000075330000453300006B
:105510002DE9F04105460F4614461E46EFF310886C
:1055200072B6BFF35F8FBFF34F8FBFF36F8F006A09
:10553000244A03681B6A934236D12B68224A9B6F28
:10554000934237D1002195F8240000F093FA286A9D
:1055500007F07F0103681B68984707464EB1264451
:10556000286A002103681A68904704F8010BB442C6
:10557000F6D12B68154ADB6F934220D1012195F8B3
:10558000240000F077FA286A114A03685B6A9342A4
:1055900013D188F31088BFF35F8FBFF34F8FBFF332
:1055A0006F8F3846BDE8F08198472B68064A9B6F9D
:1055B0009342C7D028469847C9E79847E9E7284665
:1055C0009847E0E74133000069330000753300007D
:1055D000453300002DE9F04105460F4614461E46AE
:1055E000EFF3108872B6BFF35F8FBFF34F8FBFF337
:1055F0006F8F006A244A03681B6A934235D12B6877
:10560000224A9B6F934236D1002195F8240000F086
:1056100031FA286A47F0800103681B6898470746FB
:1056200046B12644286A14F8011B026812689047A4
:10563000B442F7D12B68164ADB6F934220D1012187
:1056400095F8240000F016FA286A124A03685B6A8B
:10565000934213D188F31088BFF35F8FBFF34F8F4E
:10566000BFF36F8F3846BDE8F08198472B68074A33
:105670009B6F9342C8D028469847CAE79847E9E706
:1056800028469847E0E700BF413300006933000037
:105690007533000045330000006A034A03689B6AC3
:1056A000934200D17047184749330000084601F083
:1056B000A3BC00BF2DE9F0418C688AB0DCB10025A5
:1056C000884606462F462B46212201A9404600F077
:1056D00061F9202C2246336828BF202201A93046D8
:1056E0005B68A41A154498470744002CEBD1384650
:1056F0000AB0BDE8F081274638460AB0BDE8F0811F
:1057000000B5036883B040F60D2C022201A95B6846
:10571000ADF804C0984703B05DF804FB054B0228C0
:1057200088BF034610B41C68184663685DF8044BD4
:10573000184700BFF8D70020884200DB704730B41C
:10574000124C091A2368EBB1114A124D82FB032C4B
:10575000DA179C44C2EB2C4244F2A71C05FB12331F
:105760000D4D05FB02F20CFB0322002A0CDA6FF050
:10577000004313442360B3FBF1F201FB123330BC4E
:1057800018447047054BF5E71346F3E7541A012018
:105790005F0B4E831DF30100ECF4FFFF42CE0C1FA4
:1057A000F8B500260446C0E90066866029B10846BF
:1057B0000D463AF065FA074608B92046F8BD0130B3
:1057C00033F01CFA0028F8D0294606702060C4E99E
:1057D00001773AF0A3F92046F8BD00BFF8B588423A
:1057E0004FF0000504468560C0E9005502D08E6880
:1057F0000F680EB92046F8BD701C33F0FFF9002881
:10580000F8D0394605702060C4E901663AF086F99F
:105810002046F8BD10B50446006833F0F7F920467D
:1058200010BD00BFF8B50446154632B9036803B190
:105830001A7000232046A360F8BD43680E469A42C2
:105840001CD9511C006833F0A5FC074660B1A36861
:10585000C4E900050BB90370276831463846A560D6
:105860003AF05CF92046F8BD206810B133F0CEF96B
:10587000276000232046C4E90133F8BD076831469C
:10588000A56038463AF04AF9ECE700BF10B50023AE
:1058900082B004460A22084601A9A360C4E9003385
:1058A00034F0C4FF01A83AF0EBF901A90246204602
:1058B000FFF7B8FF204602B010BD00BF10B50023AF
:1058C0008AB00446084601A9A360C4E9003333F056
:1058D0007FF901A83AF0D4F901A902462046FFF762
:1058E000A1FF20460AB010BD2DE9F8430446006828
:1058F0000D4616468842A36809D8C218914206D2BE
:105900000F1A4FF0010936B92046BDE8F8834FF071
:105910000009002EF8D003EB0608626890450CD908
:1059200008F1010133F036FC0028EDD0A368C4E98A
:10593000000813B903702068A368B9F1000F08D1FB
:10594000294618443AF0EAF82046C4F80880BDE831
:10595000F8833246C119184400F07AF9236800220E
:1059600003F80820F0E700BF10B504468A6809680C
:10597000FFF7BAFF204610BD38B5054641B10C46C9
:1059800008463AF07DF9024621462846FFF7ACFF6B
:10599000284638BDC2B170B5B1FA81F60C46760919
:1059A00019B185689D4201D80E7070BDED1A02F1E3
:1059B000FF3C016820466545194428BF65462A46D4
:1059C00037F010FA665570BD704700BF00B97047D8
:1059D0002DE9F84F01218146214C224D224E54E8F9
:1059E000003F2A68306844E80013002BF7D11F49B4
:1059F0004B684FF47A7BDFF878A01B1A01270BFB6A
:105A000002F8DAF80020A3FB02325A4594BF904412
:105A1000D84454E8003F2A68306844E80073002BFB
:105A2000F7D14B68DAF800C01B1A0BFB02F2A3FB9C
:105A30000C3CBCF57A7F94BF624402F57A72A2EB0B
:105A40000802B2F57A7F06D3B9F1010908F57A7830
:105A5000DFD1BDE8F88F01F063FB0449D9E700BF4F
:105A6000583C0120543C0120503C0120001000E033
:105A7000143C0120362816D80201104B03EB00100D
:105A80009B5810B4C2685C68144205D061B95DF8D7
:105A9000044BC3F888207047836851B1084A5DF809
:105AA000044B1A60704770475DF8044BC3F88420BC
:105AB0007047044A5DF8044B1A60704778C80020AC
:105AC00038F0010038300100362829D8164B020181
:105AD000012903EB00109A5810B45368C4680ED023
:105AE00004290CD023EA040353608368A9B1022976
:105AF00017D003290CBF0D4A0D4A1A6007E0234353
:105B000001295360836808D040F638021A60436860
:105B100015225DF8044B1A60704738221A60F6E7C8
:105B20007047044A1A60F2E778C800203830010054
:105B30003800010038F00100704700BF362858D8FF
:105B40000001F0B4344C354D2358AB4256D049D8FF
:105B5000B3F1844F4BD0A5F58045AB4240D1304DD9
:105B60002044304E304CC4F8B462D0E901C4C0685F
:105B70004FF0E0264FF00057042AC6F810712FD8D6
:105B80005E6926EA00065E614FF00506CCF800600B
:105B9000266846F4803626605C6824EA00045C606F
:105BA000224C54F8224090FAA0F2B2FA82F245F860
:105BB00022106FEA00011DD0DD690F2A01EA0501FC
:105BC000D9611DDC52000325D968944005FA02F220
:105BD00021EA02022243DA6098615A6902435A615B
:105BE000F0BC7047124DAB42FAD1124DB8E7124DDE
:105BF000B6E77047DA690243DA61EDE70F4DAFE7C8
:105C0000103A032519695200944005FA02F221EA7C
:105C1000020222431A61DFE778C8002000800042B8
:105C2000B4E600202100000000EC0020B0040020B9
:105C300000C00042B4E7002034E6002034E7002032
:105C400008B5FDF71DFAFCF77FFC01F069FAFAE7E9
:105C5000844641EA000313F003036DD1403A41D377
:105C600051F8043B40F8043B51F8043B40F8043B36
:105C700051F8043B40F8043B51F8043B40F8043B26
:105C800051F8043B40F8043B51F8043B40F8043B16
:105C900051F8043B40F8043B51F8043B40F8043B06
:105CA00051F8043B40F8043B51F8043B40F8043BF6
:105CB00051F8043B40F8043B51F8043B40F8043BE6
:105CC00051F8043B40F8043B51F8043B40F8043BD6
:105CD00051F8043B40F8043B51F8043B40F8043BC6
:105CE000403ABDD2303211D351F8043B40F8043B66
:105CF00051F8043B40F8043B51F8043B40F8043BA6
:105D000051F8043B40F8043B103AEDD20C3205D375
:105D100051F8043B40F8043B043AF9D2043208D06D
:105D2000D2071CBF11F8013B00F8013B01D30B88DF
:105D300003806046704700BF082A13D38B078DD0BD
:105D400010F003038AD0C3F10403D21ADB071CBF8F
:105D500011F8013B00F8013B80D331F8023B20F8F9
:105D6000023B7BE7043AD9D3013A11F8013B00F832
:105D7000013BF9D20B7803704B7843708B788370BA
:105D80006046704732F03ABF32F038BF32F03EBF63
:105D900032F03CBF32F03ABF01F1FF3C70B56646CD
:105DA000002400E00134B0FBF2F502FB1503092BDF
:105DB00003F1370E03F130035FFA8EFE98BF5FFAEE
:105DC00083FE9042284606F801EFEBD2631C0022C6
:105DD000C818CA547CB162461CF8015F10F8016D06
:105DE000A1EB0C0302328CF80060013B521A0570E3
:105DF00023449A42EFDB084670BD00BF72B6EFF352
:105E00000583524CC4F884301EF0040F0CBFEFF32E
:105E10000882EFF309824FF0E0234D4E4D4DD3F849
:105E2000280DD3F82C1DC4E92201D3F8341DD3F872
:105E3000383DC4E924139369C4F89830D369C4F891
:105E40009C3000F0DDF884ED280A01F087FC0B217E
:105E50004FF0FF32C4F8A4000B46C4F880103E494E
:105E6000301D5A40202402F00103013C01FB03F3E2
:105E700083EA5202F7D1A84202D073680646EFE7E0
:105E8000324BC3F8A820BFF34F8F4FF0E0233049C7
:105E9000324AC3F8701FC3F8702FBFF34F8FBFF3A0
:105EA0006F8F2F4A02252F48D36E2F4943F440535A
:105EB000D3660560D3692D4823F07F0343F0400388
:105EC000D3610B6883423DD8264D00214FF0E0237B
:105ED0004FF0FF3229600126C5F808112449C5F8A2
:105EE0000011C5F80861C3F88021C3F88421C3F804
:105EF0008821C3F88C21C3F8902101E000F072F9E9
:105F0000D5F80C31002BF9D00134C5F80C614F2CB9
:105F1000F4D9184B022018494FF00042C1F8400153
:105F20005A63D5F80C313BB9144815490D4A016341
:105F3000D2F80C31002BFAD04FF0E023114AC3F80D
:105F40000C2DFEE701F0DAF9BEE700BF00FF2720C5
:105F500080FF2720A8FF27202083B8EDA0FF27205F
:105F600000C00F4000400840A4D70020803DCD0B6A
:105F7000009F240000900D4000002E4000800F4044
:105F8000F100AD0B0400FA050A490A6838B108B5FA
:105F900013180948834204D810460B6008BD104608
:105FA000704739F015FC0C234FF0FF3203601046A8
:105FB00008BD00BF9CD800200000282000207047AA
:105FC0004FF0FF30704700BF4FF4005300204B608C
:105FD000704700BF012070474FF0FF30704700BF8F
:105FE00030BFFDE70078B0FA80F04009704700BF8D
:105FF00001230370704700BF30BFFDE7FFF7FEBE0F
:10600000124AD2F880305B07FBD5D2F880301048B6
:10601000C3F30B230F4990ED007A07EE903A91ED10
:10602000006AB8EE477A0C4AF8EEE77A0B4BD2EDED
:10603000006A77EEC77A93ED007AB8EE477A67EE9A
:10604000867A87EEA60A37EE400A704700810D4037
:10605000243B01202C3B0120303B0120283B012028
:10606000836BF0B41BB1536843F40043536072B6C2
:10607000446B3CB31A4B2260D3F8B0410C421DD1A3
:10608000184E776804E07468E41BB4F5166F0BD201
:10609000D3F8404144F48044C3F84041D3F8B851A8
:1060A000D3F840416404EED50D4007D10C4CC0E953
:1060B0000225D4F8B0310B43C4F8B031426362B664
:1060C000F0BC7047064DC0E90224D5F8B0310B434F
:1060D000C5F8B0310263426362B6F0BC704700BFDE
:1060E00000002E40001000E070B5056B9DB1064623
:1060F0002A46002403E012680134012A0CD05368B8
:1061000013F08003F7D032632CB12846B36B2D68AF
:106110009847013CF9D170BDC6E90C33F4E700BFE4
:1061200030B4D9B91F4C204B0021204A01254FF033
:10613000011099601D60C4E9023180245C60C2F8DE
:10614000BC01D2F8B0311A482B43C2F8B03101601B
:10615000D2F8B031002BFBD130BC70470904154B8D
:10616000104C012541F080019860104A596000F5FB
:1061700080511D60D96000F50051A364196100F5DC
:10618000405100F58040596100219861E164D2F8E6
:10619000B03143F48033C2F8B031D2F8B031002BC3
:1061A000FBD1C0E700000020C0EE002000002E4020
:1061B0007C380120E0EE0020084901220B7802FA29
:1061C00000F023EA0000087030B9054AD2F84831DF
:1061D00023F08003C2F84831704700BF853C01209E
:1061E00000002E402DE9F04F974C83B0D4F8447155
:1061F000FB07C4F8447153D5D4F8AC21002A4AD027
:10620000924EDFF860A2DFF87492DFF874B2DFF824
:106210007482C4F8AC21D6E90A20D4F8403143F4A2
:106220000053C4F84031D4F840319D04F5D5D4F87A
:10623000403123F40053C4F840314FF00113C4F847
:10624000B431D4F8B45115F00115FAD193B28446A3
:10625000CAF80050B3F5086F00F0CF8100F2DB8080
:1062600040F202318B4200F0E78100F29A80822BEB
:1062700000F0CB81B3F5817F40F08A8010F0780F79
:1062800083B200F003824FF00113C4F8C031D4F898
:10629000AC21002ABDD16C4AD2F8BC31002B42D1CE
:1062A0007E0616D5684BD3F8AC21C3F8AC21D3F8E1
:1062B000BC21C3F8BC21D3F8B041002CFBD14FF076
:1062C000FF32C3F8B421D3F8843100F02DFD604BC8
:1062D0001C60FC0103D55F4B1B6803B19847B801F4
:1062E00003D55D4B1B6803B19847790708D5564B1A
:1062F000D3F8843113F4007347D0584B01221A703D
:10630000514BD3F848311A060AD53B0608D5544AF2
:1063100013782BB1013BDBB21370002B00F07282BB
:1063200003B0BDE8F08F4F49C2F8BC3108680342A2
:1063300040F0D181464A14681C40B1D05FEA14484D
:1063400010D0424E4FF0010998FAA8F5B5FA85F53C
:1063500006EBC51009FA05F54030FFF7C5FE38EA2F
:106360000508F1D1A4B2002C9AD0384E4FF00108A4
:1063700094FAA4F5B5FA85F506EBC51008FA05F50B
:10638000FFF7B2FEAC43F3D18AE7344A1370B7E7A4
:10639000802B7FF478AF344802210580FFF7C0FEE0
:1063A00075E7B3F5A06F00F00B81A3F5D063012B67
:1063B0003FF669AF2D4B5D68002D3FF464AF1FFAC7
:1063C0008CFC4FEA124E04E01D690C33002D3FF4A3
:1063D0005AAF1A887245F7D15A886245F4D14FEA0C
:1063E0001E22032A00F0A5811A89000C824228BFD0
:1063F0000246BEF5007F40F0A181184B1C49187879
:106400001C4B0192002818BF19461B48FFF720FCBF
:10641000194D019AE1E142F221218B427CD033D91E
:1064200042F221318B4200F081804FF6C0018B4255
:106430007FF429AF10F47F4F83B27FF424AF43F48D
:106440006E4363F30F0CB5E700002E400000002000
:1064500080380120683C01206C3C01208B3C0120ED
:106460008C3C01207C380120EC3A0120A8D400208B
:10647000EC1E0060501F00600000202074380120D6
:106480005DCFC6B8C0012E40B3F5106F66D042F2A2
:1064900021018B427FF4F7AE030C072B7FF4F3AEA0
:1064A000B24BB349F560D960B249B360C3F8089004
:1064B000C1E9002001221A60AF4A5A60AF4A1A614E
:1064C000D4F8B01141F00101C4F8B01102F58051C7
:1064D00002F5005259619A61D4F8B031002BFBD11A
:1064E000A74AF36493600123B264136048F2800307
:1064F00053604FF00113C4F8BC31D4F8B03143F409
:106500008033C4F8B0314FF48033CAF80030D4F887
:10651000B031002BFBD1BAE680B238B9994BC2F347
:1065200007421968984B1960984B1A70944B0022D7
:106530009A60F2640122B3641A6080225A604FF0BC
:106540000113C4F8BC31D4F8B03143F48033C4F83B
:10655000B031D4F8B031002BFBD198E6C2F307423A
:106560008B4B1A708B4BC4F8C8318B4BC4F8CC31B1
:106570008A4BC4F8D03100F0D9FB802229468848E4
:1065800036F03EF9874B8022C6F8A0B0C6F8E0305E
:106590007B4BF5645A600122B3649D601A604FF032
:1065A0000113C4F8BC31D4F8B03143F48033C4F8DB
:1065B000B031CAF80050D4F8B031002BFBD166E6F8
:1065C0006F4B0121F564196080219D60B3645960AF
:1065D0004FF00113C4F8BC31D4F8B03143F4803328
:1065E000C4F8B031D4F8B031002BFBD1130C5B06EA
:1065F00043F08073C4F8543149E6654B01216A4881
:106600001B780370FFF78CFD41E683B210F0780031
:106610007FF439AE03F07F0258F82210624A1080EE
:10662000180600F19E80CB0701D5012313700221CB
:106630005D48FFF775FD2AE610F0780F83B27FF40E
:1066400022AE03F07F0213F0800F58F8223014BFFF
:1066500043F4803343F0010348F822300022484BD2
:10666000F2649A600122B3641A6080225A604FF08B
:106670000113C4F8BC31D4F8B03143F48033C4F80A
:10668000B031D4F8B031002BFBD100E603F07F022B
:1066900013F0800F58F8223014BF23F4803323F016
:1066A000010348F822300022354BF2649A6001223F
:1066B000B3641A6080225A604FF00113C4F8BC31F1
:1066C000D4F8B03143F48033C4F8B031D4F8B031E9
:1066D000002BFBD1DBE50020086026490C884868C8
:1066E00042F221018C427FF425AE80B200287FF473
:1066F00021AE2E492E4C03C9A18086284FEA1141B4
:106700002060A1717FF416AE72B62A48017841F07C
:1067100008010170D2F848110D0605D4802001430C
:10672000C2F84401C2F8481162B6234A50211170E0
:1067300000E6000C2A78824228BF0246BEF5E06FD0
:1067400044D11E4B1E4D18781E491F4B0192002844
:1067500018BF19462846FFF77BFA07236B70019A8A
:106760003BE0C9033FF561AF61E700BFE0EE002009
:106770007448012080F00020800007007458012038
:10678000C0EE0020543C0120643C0120893C0120E3
:106790008A3C01200200CC00C80002000200C800B0
:1067A000800000201993D574EC3A01207438012040
:1067B0005C3C0120853C01208C3C01208B3C01206D
:1067C00000002020501F0060EC1E00602946104D84
:1067D00001922846FFF73CFA019A25F01F03154461
:1067E000BFF34F8F4FF0E021C1F8703F20339D423F
:1067F000FAD8BFF34F8FBFF36F8F05481146FFF7ED
:106800008FFC44E50320FFF7D7FC45F061FF00BF94
:10681000000020202DE9F0471F46831E022B01D9DE
:10682000BDE8F087DFF84C9015460C463C2209EB9A
:10683000C01806464FEAC01A002108F104002404DB
:1068400035F0DEFFB5FA85F20123520944EA4274BD
:1068500049F80A40C8F83870C8F80830002FDFD06F
:10686000034AB34011680B431360BDE8F08700BFD3
:1068700080380120000000202DE9F0470D46811EE0
:10688000022901D9BDE8F087C701DFF84C90924694
:10689000044640373C2200211E4609EB07082D0420
:1068A00008F1040035F0ACFFBAFA8AF2520945EA61
:1068B000427249F807200122C8F83860C8F8082059
:1068C000002EDFD0034B10341968A2400A431A602F
:1068D000BDE8F087803801200000002012048160AC
:1068E000C36101F5405342F0800210B401244260BC
:1068F00001F50052046001F5805401F58041C46047
:1069000081615DF8044BC0E904237047831E0A4689
:10691000022B00D97047064B00F110014FF0010C1B
:1069200003EBC0100CFA01F14030FFF799BB00BF38
:1069300000000020831E0A46022B00D97047012167
:10694000024B814003EBC010FFF78ABB0000002020
:1069500040687047124A134BD2F8200220F07F4063
:10696000984210B584B002D200EB800040000E4C7B
:1069700001A90A22FFF710FA01A90023204611F805
:10698000012B01333AB10A2B20F8022FF7D116233D
:10699000237004B010BD5B00DBB2237004B010BDE7
:1069A00000441F40809698008CE8002000F0DCBA7C
:1069B00000F0ACBA00F010BB00F0CABA00F066BB41
:1069C00000F03CBB0846114600F02CBBF8B5144C57
:1069D0004FF0E025134E4FF4003204EB4024124FE9
:1069E00006EB40160346C5F88C2121463A8830460E
:1069F000FFF774FF3B882344BFF34F8FC5F85C4F0C
:106A00002034A342FAD8BFF34F8FBFF36F8F032018
:106A10003146FFF78FFF4FF40033C5F80C31F8BD56
:106A20008000202000EF0020723C0120244B2DE943
:106A3000F0411C884368C569C3F30E43E41A002C77
:106A400024DD204920480A780078D3B21F4E8242C4
:106A50001F4807D010F8038036F81870C7F5007289
:106A6000944218D90133002226F81540082B194EFC
:106A700088BF134626F8152098BFDAB2C554164BC6
:106A80000A701A6814441C60BDE8F0812846BDE80D
:106A9000F041FFF79BBF07EB4820104922462744EF
:106AA000084401EB4521FFF7D3F80B4A284626F8A6
:106AB000187013682344BDE8F0411360FFF786BFE8
:106AC000723C0120833C0120843C0120F83A0120E3
:106AD000183B0120083B0120F43A012080002020CF
:106AE0001D4B1A78002A36D102F0FF031B4A127898
:106AF0008AB32DE9F0411A4D2A8852B3194EC2F5D6
:106B00000068194F3278194C07EB421704EBC22486
:106B1000424638462146FFF7E1FE04EB0802BFF388
:106B20004F8F4FF0E023C3F8704F2034A242FAD8C1
:106B3000BFF34F8FBFF36F8F04203946FFF7E6FE98
:106B400033780133DBB2032B88BF0023337000237B
:106B50002B80BDE8F0817047883C01208A3C0120F1
:106B6000743C0120873C012000F000208010202090
:106B70002DE9F04F85B0CDE90110002900F0BF806C
:106B80000023604CDFF89881DFF898A15E4F0093F6
:106B900001235E4A23705E4B1978B8F8003002EB8F
:106BA0004119002B40F0A7801E461D469B464846D3
:106BB000FFF7CEFE10F0800000F08C80BFF34F8F07
:106BC0009AF8003084F800B005B93E68002B7DD1FA
:106BD0003B689B1B782B00F287804E4B1B78002B69
:106BE00074D000F09DFA0122B8F8003015462270EA
:106BF000002BDCD0464AC3F5006011781A4600EB42
:106C0000C120454DC9022844019D954217D20393E6
:106C1000DDE901512A46FFF71BF8039B4FF0404284
:106C20005B1BA8F800303D4BC3F88420BFF34F8FA7
:106C3000009800232844237005B0BDE8F08F364B40
